:020000040800F2
:10000000280C0020D501000825130008DB09000892
:1000100021130008350700085F21000800000000D8
:10002000000000000000000000000000F5170008BC
:100030001908000800000000A71600089F19000812
:10004000EF010008EF010008EF010008EF010008D0
:10005000EF010008EF010008EF010008EF010008C0
:10006000EF010008EF010008EF010008EF010008B0
:10007000EF010008EF010008EF010008EF010008A0
:10008000EF010008EF010008EF010008EF01000890
:10009000EF010008EF010008EF010008EF01000880
:1000A000EF010008EF010008EF010008EF01000870
:1000B000EF010008011A0008EF010008EF01000835
:1000C000EF010008EF010008EF010008EF01000850
:1000D000EF010008CD1E0008EF010008551F0008C1
:1000E000EF010008EF010008EF010008EF01000830
:1000F000EF010008EF010008EF010008EF01000820
:10010000EF010008EF010008EF010008EF0100080F
:10011000EF010008EF010008EF010008D91A0008FC
:10012000EF010008EF010008EF010008EF010008EF
:1001300000F002F800F03FF80AA090E8000C8244BA
:100140008344AAF10107DA4501D100F034F8AFF297
:10015000090EBAE80F0013F0010F18BFFB1A43F0A5
:10016000010318471834000038340000103A24BF47
:1001700078C878C1FAD8520724BF30C830C144BF0C
:1001800004680C607047000000230024002500264E
:10019000103A28BF78C1FBD8520728BF30C148BFEA
:1001A0000B607047642900F04380002070471FB542
:1001B0001FBD10B510BD00F0C7F91146FFF7F7FFDE
:1001C00002F094F800F0E5F903B4FFF7F2FF03BC86
:1001D00002F029F80948804709480047FEE7FEE792
:1001E000FEE7FEE7FEE7FEE7FEE7FEE7FEE7FEE7E7
:1001F00004480549054A064B70470000A11900084C
:100200003101000828060020280C002028080020C2
:1002100028080020704700000FB4044910B503AA55
:10022000029800F07BF910BC5DF814FB340000204C
:100230002DE9F0410646002410687529314616A5BF
:1002400010D0AFF30080002802DA404213A507E087
:1002500031688A0701D512A502E0490704D511A526
:10026000012401E0AFF3008000210A2206F12407F7
:1002700009E0B0FBF2FCB0FBF2F302FB1C003030F3
:1002800078541846491C0028F3D123462A463046A4
:10029000BDE8F04100F0D0B8000000002D000000E3
:1002A0002B000000200000002DE9F05F8946044685
:1002B0004FF0000ADFF874B1FB44C0F820A02046DC
:1002C000E1688847002874D0252806D0D4E90121A8
:1002D0009047206A401C2062F1E700265F462046D6
:1002E000E16888472028054607DB312D05D27819BB
:1002F00010F8200C08B10643F1E7B00701D526F04D
:100300000406C4F81CA00027C4F818A02A2D09D0A0
:10031000284601F081FF38B304EB8708303DC8F868
:10032000185019E059F8041B204604EB870291612C
:10033000E1688847012F054618D1E069002820DAD6
:1003400026F020061DE0D8F8180000EB800005EB31
:1003500040003038C8F818002046E1688847054654
:1003600001F05AFF0028EED1012F0AD02E2D08D11E
:100370002046E16888477F1C0546022F46F020068C
:10038000C4DBA069002803DA404246F00106A06100
:10039000F00701D026F010066C2D0BD0682D09D087
:1003A0004C2D39D06A2D35D0742D35D07A2D33D0DF
:1003B00016E038E0E1682F4620468847B8420546F7
:1003C00009D16C2F26D04FF48060E16806432046A7
:1003D0008847054604E06C2F1AD04FF4807006431E
:1003E0000DB3A5F14100192802D8203546F4006666
:1003F0004A462946204626604E46FFF7D3FE80B186
:1004000001280BD0F61D26F0070000F1080956E779
:100410004020E4E78020D8E70020D6E706F1040971
:100420004DE7284652E7206ABDE8F09FAE32000053
:1004300070477047704770472DE9F0470D46994661
:100440009246044600F124080168880604D5E06954
:1004500021F01001216000E00120A84201DD471BCE
:1004600000E00027A1697A1902EB0900081AA061CF
:100470002078C00602D42046AFF30080002608E0B2
:10048000D4E901211AF806009047206A401C761C26
:1004900020624E45F4DB2078C0060AD52046AFF333
:1004A000008006E0D4E9012130209047206A401CFA
:1004B0002062381EA7F10107F4DC07E0D4E901212E
:1004C00018F805009047206A401C2062281EA5F1FC
:1004D0000105F3DC2046AFF300802078000602D54A
:1004E0000220BDE8F0870120FBE7000001694A1CFB
:1004F00002610878704700B58FB0CDE90131002165
:10050000059105497944CDE9031011466846FFF786
:10051000CBFE0FB000BD0000E5FFFFFF074B70B53D
:100520000D467B44FFF7E7FF0446284600F008F835
:1005300010B14FF0FF3070BD204670BDAB1D000004
:10054000007B00F080007047754600F029F8AE4649
:1005500005006946534620F00700854618B020B5CF
:10056000FFF746FEBDE820404FF000064FF00007C1
:100570004FF000084FF0000B21F00701AC46ACE84B
:10058000C009ACE8C009ACE8C009ACE8C0098D46B8
:1005900070470446AFF300802046FFF715FE0000C9
:1005A00000487047C805002021B1826842F001026E
:1005B000826003E0826822F00102826070470000DE
:1005C00010B504461248844208D10121401501F0BB
:1005D00097F80021601501F093F817E00D48844268
:1005E00008D10121001501F08BF80021201501F040
:1005F00087F80BE00848844208D10121C80301F0C4
:100600007FF800214FF4004001F07AF810BD00009F
:100610000024014000280140003C01400146002028
:100620008A6802F004020AB1012000E0002070474D
:10063000014600208A6802F008020AB1012000E0A9
:100640000020704730B502460020002350680F4C50
:1006500020400D790C6844EA0524204350609068DE
:100660000B4C2040D1E902542C434D7944EA450417
:1006700020439060D06A20F470000C7C641EE4B2C9
:10068000234340EA0350D06230BD0000FFFEF0FF7C
:10069000FDF7F1FF816841F00801816070478168D2
:1006A00041F004018160704700B587B001214FF42B
:1006B000017001F015F84FF4004000F0F5FF022042
:1006C000ADF8040000208DF8070001A9174800F0DC
:1006D000A4F81748FFF774FF002002908DF80C0073
:1006E0008DF80D004FF4602004900020059001204B
:1006F0008DF8180002A90E48FFF7A4FF01210C484D
:10070000FFF752FF0A48FFF7C5FF00BF0848FFF791
:100710008FFF0028FAD10648FFF7C1FF00BF044849
:10072000FFF77CFF0028FAD107B000BD00080140A8
:100730000024014000BFFEE739B1084A12680123D6
:1007400083401A43054B1A6006E0044A12680123ED
:1007500083409A43014B1A607047000000740040C8
:1007600030B5002200230A4C226840F6FE74844013
:10077000A243D1E900452C438D682C43CD6844EA5F
:10078000050303FA00F42243014C226030BD00004F
:100790000074004008B500220092054A009200F162
:1007A0000802009B1A440092009A116008BD0000E4
:1007B0000074004000B585B00121042000F090FFD6
:1007C0000121480700F07CFF1020ADF81000002048
:1007D0008DF8130003208DF8120004A90D4800F0D5
:1007E0001CF810210B4800F0F6F800200090019052
:1007F00002900220039069460020FFF7B1FF01211B
:100800000020FFF799FF00210846FFF7C3FF05B05E
:1008100000BD00000008014070472DE9F04102468C
:1008200000250026002000230024002791F803C0A3
:100830000CF00F0591F803C00CF0100CBCF1000F88
:1008400003D091F802C04CEA050591F800C0BCF154
:10085000000F31D0146800202BE04FF0010C0CFA8F
:1008600000F3B1F800C00CEA03069E4220D18300D9
:100870004FF00F0C0CFA03F7BC4305FA03FC4CEAEB
:10088000040491F803C0BCF1280F06D14FF0010C0D
:100890000CFA00FCC2F814C00AE091F803C0BCF1E5
:1008A000480F05D14FF0010C0CFA00FCC2F810C043
:1008B000401C0828D1D31460B1F800C0BCF1FF0F70
:1008C00034DD546800202EE000F1080C4FF00108E0
:1008D00008FA0CF3B1F800C00CEA03069E4221D1DD
:1008E00083004FF00F0C0CFA03F7BC4305FA03FC2E
:1008F0004CEA040491F803C0BCF1280F05D100F1C3
:10090000080C08FA0CF8C2F8148091F803C0BCF186
:10091000480F07D100F1080C4FF0010808FA0CF855
:10092000C2F81080401C0828CED35460BDE8F08186
:10093000F0B50A46002300240021002500F00046FF
:10094000B6F1004F02D11D4EF16901E01B4E7168F6
:10095000C0F3034583B200F44016B6F5401F08D13A
:1009600021F07061154E766826F07066134F7E6038
:1009700012E000F48016B6F5801F06D1032606FAB1
:1009800005F4A14341F0706106E0460D360103FA1B
:1009900006F6B14341F0706122B1460D360103FA0B
:1009A00006F6314300F00046B6F1004F02D1034E87
:1009B000F16101E0014E7160F0BD000000000140F6
:1009C0000246002093680B400BB1012000E000209C
:1009D0007047416170470161704700BFFEE700004A
:1009E00008B50121082000F07BFE4FF44060ADF80F
:1009F000000001208DF8020014208DF803006946E4
:100A00000548FFF70AFF4FF4806003491031086082
:100A10004000086008BD0000000C014070B50024D3
:100A20004FF4006012490860012001F0FEFB002530
:100A30001AE06006040E4FF480600D490860410022
:100A40000B481038FFF7BCFF08B144F00104052043
:100A500001F0EBFB4FF480600549091D086005209B
:100A600001F0E3FB681CC5B2082DE2DB204670BD37
:100A7000100C014010B50446012C03D1C0020C49F2
:100A8000086004E04FF400600949091D08604FF454
:100A9000806007490860052001F0C7FB4FF48060C3
:100AA0000349091D0860052001F0BFFB10BD0000CF
:100AB000100C014030B504464FF4806013490860C3
:100AC00000251FE004F0800028B14FF400600F49BA
:100AD000091F086003E04FF400600C4908604FF400
:100AE00080600A49091F0860052001F09EFB4FF451
:100AF000806006490860052001F097FB6006040E3F
:100B0000681CC5B2082DDDDB30BD0000140C0140AF
:100B100010B54FF4006018490860052001F085FB0E
:100B20004FF4806014490860052001F07EFB4FF40B
:100B3000006111481038FFF743FF08B9002010BDCD
:100B40004FF400600C49091D0860052001F06DFBA1
:100B50004FF4006108481038FFF732FF08B1002059
:100B6000EDE74FF480600449091D0860052001F09D
:100B70005CFB0120E3E70000100C014000B54FF4DE
:100B800000600A49086040100860052001F04DFB34
:100B90004FF480600549091F0860052001F045FBFE
:100BA0004FF400600149091F086000BD140C0140AA
:100BB00010B500244FF40060174908604010086029
:100BC00005E0601C84B2B4F5FA7F00D107E04FF471
:100BD000006111481038FFF7F3FE0028F1D100BF83
:100BE0004FF400610C481038FFF7EAFE30B14FF4C3
:100BF00080600949091D0860002010BD052001F032
:100C000014FB4FF480600449091D0860052001F0C1
:100C10000CFB0120F1E70000100C014010B54FF46F
:100C200000510948FFF7D7FE4FF480410648FFF70F
:100C3000D2FE4FF480410448FFF7CBFE4FF4005141
:100C40000148FFF7C6FE10BD000C014010B54FF47F
:100C500000510748FFF7BFFE4FF480410448FFF7FB
:100C6000B8FE4FF480410248FFF7B5FE10BD00000A
:100C7000000C014010B54FF400510448FFF7ABFEE3
:100C80004FF400510148FFF7A4FE10BD000C0140D5
:100C900008B50121812000F023FD01213748FFF72D
:100CA00047FE0220ADF8000010208DF8030003205D
:100CB0008DF8020069463248FFF7AFFD0820ADF815
:100CC000000010208DF8030003208DF80200694613
:100CD0002B48FFF7A2FD1020ADF800008DF80300AF
:100CE00003208DF8020069462548FFF796FD102085
:100CF0008DF8030003208DF802002020ADF80000DD
:100D000069461F48FFF789FD4FF48050ADF8000099
:100D100028208DF8030003208DF80200694618484A
:100D2000FFF77BFD4FF40050ADF8000028208DF850
:100D3000030003208DF8020069461148FFF76DFD9E
:100D40004FF48040ADF8000028208DF80300032008
:100D50008DF8020069460A48FFF75FFD28208DF8EC
:100D6000030003208DF802004FF40040ADF80000AE
:100D700069460348FFF751FD08BD0000000230003E
:100D8000001C014010B5FF240221F548FFF723FEA7
:100D90000821F348FFF71FFE1021F148FFF71BFE63
:100DA0002021EF48FFF717FE4FF48051EC48FFF782
:100DB00007FE012814D04FF40051E948FFF700FE68
:100DC00001280DD04FF48041E548FFF7F9FD0128D7
:100DD00006D04FF40041E248FFF7F2FD01287DD133
:100DE0000A2001F04FFA4FF48051DD48FFF7E8FD8B
:100DF000012814D04FF40051D948FFF7E1FD012834
:100E00000DD04FF48041D648FFF7DAFD012806D017
:100E10004FF40041D248FFF7D3FD01287DD1D148DE
:100E200000780028FAD10120CE4908700221CC4870
:100E3000FFF7D1FD0821CA48FFF7CBFD1021C848B4
:100E4000FFF7C7FD2021C648FFF7C3FD4FF48051CF
:100E5000C348FFF7B5FDC44908704FF40051C048BE
:100E6000FFF7AEFDC14908704FF48041BC48FFF761
:100E7000A7FDBF4908704FF40041B948FFF7A0FD36
:100E8000BC490870B8480078012809D1B7480078F3
:100E900030B9B748007818B90846007800B904247A
:100EA000B148007850B9B1480078012806D1B0485F
:100EB000007818B9AF48007800B90824AA4800782B
:100EC00050B9AA48007838B9A9480078012803D158
:100ED000A848007800B90C24A34800E03BE1007862
:100EE00050B9A248007838B9A148007820B9A14883
:100EF0000078012800D1102402219948FFF769FDEC
:100F000008219748FFF767FD10219548FFF761FD1D
:100F100020219348FFF75DFD00E01FE14FF4805171
:100F20008F48FFF74DFD904908704FF400518C48F1
:100F3000FFF746FD8D4908704FF480418848FFF760
:100F40003FFD8B4908704FF400418548FFF738FD9D
:100F50008849087084480078012809D183480078BE
:100F600030B98348007818B90846007800B90324DE
:100F70007D48007850B97D480078012806D17C482A
:100F8000007818B97B48007800B9072476480078C3
:100F900050B97648007838B975480078012803D1EF
:100FA0007448007800B90B246F48007850B96F4836
:100FB000007838B96E48007820B96E48007801286A
:100FC00000D10F2402216648FFF703FD0821644881
:100FD000FFF7FFFC10216248FFF7FDFC202160486D
:100FE000FFF7F7FC4FF480515D48FFF7E9FC5E49DD
:100FF00008704FF400515A48FFF7E2FC5B49087053
:101000004FF480415648FFF7DBFC594908704FF414
:1010100000415348FFF7D4FC564908705248007805
:10102000012809D15148007830B95148007818B9E1
:101030000846007800B902244B48007850B94B4864
:101040000078012806D14A48007818B94948007844
:1010500000B906244448007850B94448007838B9AB
:1010600043480078012803D14248007800B90A2497
:101070003D48007850B93D48007838B93C48007880
:1010800020B93C480078012800D10E2402213448C0
:10109000FFF79FFC08213248FFF79BFC10213048E6
:1010A000FFF797FC20212E48FFF795FC4FF4805165
:1010B0002B48FFF785FC2C4908704FF40051284855
:1010C000FFF77EFC294908704FF480412448FFF760
:1010D00077FC274908704FF400412148FFF770FC66
:1010E0002449087020480078012809D11F48007859
:1010F00030B91F48007818B90846007800B90124B3
:101100001948007850B919480078012806D11848C4
:10111000007818B91748007800B9052412480078FB
:1011200050B91248007838B91148007820B91148F0
:101130000078012800D10D240B48007870B90B48C5
:10114000007858B90A480078012807D10948007882
:1011500020B9092402E0002002490870204610BD91
:10116000001C01402C000020280000202900002045
:101170002A0000202B00002010B5FFF703FE00B26C
:10118000644908800846B0F9000009286BD007DCE4
:1011900018D2DFE800F0BD18222C36404A545E0019
:1011A0000E2874D008DC0A2867D00B2874D00C28CD
:1011B0007CD00D2806D183E00F286BD010286AD090
:1011C000FF28F7D1A4E05348B0F9001052A0FFF770
:1011D00023F80120514908809AE04E48B0F90010E8
:1011E0004DA0FFF719F802204C49088090E04948CB
:1011F000B0F9001048A0FFF70FF803204749088016
:1012000086E04448B0F9001043A0FFF705F8042039
:10121000424908807CE03F48B0F900103EA0FEF74C
:10122000FBFF05203D49088072E03A48B0F9001004
:1012300039A0FEF7F1FF06203849088068E03548FC
:10124000B0F9001034A0FEF7E7FF0720334908800B
:101250005EE03048B0F900102FA0FEF7DDFF082057
:101260002E49088054E02B48B0F900102AA0FEF760
:10127000D3FF0920294908804AE02648B0F9001028
:1012800025A0FEF7C9FF0A202449088040E021E09C
:1012900002E00BE028E031E01E48B0F900101EA08B
:1012A000FEF7BAFF0B201D49088031E01948B0F95C
:1012B000001019A0FEF7B0FF0C201849088027E0A5
:1012C0001448B0F9001014A0FEF7A6FF0D20134932
:1012D00008801DE00F48B0F900100FA0FEF79CFF3A
:1012E0000E200E49088013E00A48B0F900100AA049
:1012F000FEF792FF0F200949088009E00548B0F980
:10130000001005A0FEF788FF10200449088000BFE8
:1013100000BF10BD1600002025640000180000204A
:1013200000BFFEE77047000070B5002100230F22C8
:10133000C47804B3154C246804F4E064C4F5E06494
:10134000210AC1F10403CA40447804FA03F1847805
:101350001440214309010E4C0678A155047804F08D
:101360001F050124AC4005786D11AD0005F1E025A5
:10137000C5F8004109E0047804F01F050124AC40E1
:10138000044D0678761145F8264070BD0CED00E05E
:1013900000E400E080E100E002490143024A1160FC
:1013A000704700000000FA050CED00E070B506463D
:1013B000002418E004F1B000002100F068F90021D9
:1013C000084600F064F90021102000F060F90025C3
:1013D00005E00121304600F05AF9681CC5B2802DA5
:1013E000F7DB601CC4B2082CE4DB70BD08B501213A
:1013F000082000F075F94FF4C040ADF8000010204F
:101400008DF8030003208DF8020069463B48FFF782
:1014100004FA4FF4C0413948FFF7DDFAC82000F064
:1014200031FF0021AE2000F032F90021084600F023
:101430002EF90021102000F02AF90021402000F0B0
:1014400026F90021B02000F022F90021812000F0CF
:101450001EF90021FF2000F01AF90021A12000F060
:1014600016F90021A62000F012F90021A82000F0B2
:101470000EF900213F2000F00AF90021C82000F0F9
:1014800006F90021D32000F002F90021084600F0FF
:10149000FEF80021D52000F0FAF80021802000F0AD
:1014A000F6F80021D82000F0F2F80021052000F025
:1014B000EEF80021D92000F0EAF80021F12000F038
:1014C000E6F80021DA2000F0E2F80021122000F016
:1014D000DEF80021DB2000F0DAF80021302000F0F7
:1014E000D6F800218D2000F0D2F80021142000F061
:1014F000CEF80021AF2000F0CAF808BD000C014072
:1015000070B504460D4605F1B000002100F0BFF8AB
:10151000102141EA1410002100F0B9F804F00F0086
:10152000002100F0B4F870BD2DE9F04707460E46E3
:101530009046994600250024A8F12000C5B27F2FCF
:1015400002DD0027B01CC6B2B9F1100F24D131461C
:101550003846FFF7D5FF002408E004EB0511194ACF
:10156000505C012100F093F8601CC4B2082CF4DB3D
:10157000701CC1B23846FFF7C3FF002409E004EB3A
:10158000051108310F4A505C012100F080F8601C01
:10159000C4B2082CF3DB12E031463846FFF7B0FF47
:1015A00000240AE005EB4501074A02EB4101085D12
:1015B000012100F06CF8601CC4B2062CF2DBBDE81F
:1015C000F08700007A2F0008522D00082DE9FF5FF8
:1015D000074691461E460E9D4FF0000A002435E056
:1015E000301B401EC1B20A2001F022F8B9FBF0F016
:1015F0000A21B0FBF1F201FB1208BAF1000F14D17D
:10160000701EA04211DDB8F1000F0CD1AB4605EB06
:10161000DB71491001FB0471C8B22B4620220199ED
:10162000FFF782FF10E04FF0010AAB4605EBDB71DC
:10163000491001FB0471C8B208F13001CAB22B464F
:101640000199FFF771FF00BF601CC4B2B442C7DB51
:10165000BDE8FF9F2DE9F04104460F461546984628
:1016600000260FE0AA5D434639462046FFF75CFF9F
:1016700004F10800C4B2782C02DD0024B81CC7B203
:10168000701CC6B2A85D0028ECD1BDE8F08170B531
:1016900004460D461DB1E0B200F0A8FD02E0E0B244
:1016A00000F08EFD70BD704701460020034A50686F
:1016B00020F4404008435060704700000010024092
:1016C00029B1064AD2690243044BDA6104E0034AB5
:1016D000D2698243014BDA6170470000001002407A
:1016E00029B1064A92690243044B9A6104E0034A15
:1016F00092698243014B9A617047000000100240DA
:1017000029B1064AD2680243044BDA6004E0034A76
:10171000D2688243014BDA6070470000001002403B
:1017200030B500210022002400232D4D6D6805F006
:101730000C0121B1042905D0082923D105E0294D48
:10174000056022E0274D05601FE0254D6D6805F41A
:101750007012234D6D6805F48034022505EB92422A
:101760001CB9214D554305600BE01D4D6D6805F416
:1017700000351DB11C4D5543056002E0194D554320
:10178000056002E0174D056000BF00BF144D6D6895
:1017900005F0F0010909154D6B5C0568DD404560F9
:1017A0000F4D6D6805F4E061090A104D6B5C4568EA
:1017B000DD4085600A4D6D6805F46051C90A0B4D26
:1017C0006B5C4568DD40C560054D6D6805F44041C2
:1017D000890B074D6B5CC568B5FBF3F5056130BD42
:1017E0000010024000127A0000093D003A0000207B
:1017F0004A000020704710B500F002F810BD00004C
:101800000CB50020019000903348006840F480300F
:101810003149086000BF3048006800F40030009093
:101820000198401C0190009818B90198B0F5A06F7C
:10183000F1D12948006800F4003010B10120009077
:1018400001E0002000900098012843D1234800685F
:1018500040F01000214908600846006820F00300AD
:1018600008600846006840F0020008601A484068B6
:10187000194948600846406848600846406840F496
:10188000806048600846406820F47C104860084644
:10189000406840F4E81048600846006840F08070F6
:1018A000086000BF0C48006800F000700028F9D004
:1018B0000948406820F0030007494860084640682E
:1018C00040F00200486000BF0348406800F00C0090
:1018D0000828F9D10CBD0000001002400020024091
:1018E0002DE9F04106460F4614461D46FFF710F954
:1018F00020B9FFF743F90020BDE8F0813046FFF73B
:10190000D9F8FFF755F918B9FFF738F90020F3E7D0
:101910003846FFF7CFF8FFF74BF918B9FFF72EF964
:101920000020E9E7FFF7F4F818B9FFF727F90020DE
:10193000E2E7711CC8B2FFF7BDF8FFF739F918B933
:10194000FFF71CF90020D7E708E0FFF767F804F875
:10195000010B0020FFF78EF8681EC5B2681E002834
:10196000F3D1FFF75BF820700120FFF783F8FFF752
:1019700005F90120C0E7042808D14FF0E0210969EA
:1019800041F004014FF0E022116107E04FF0E02147
:10199000096921F004014FF0E0221161704770479E
:1019A00010B51348006840F001001149086008466E
:1019B0004068104908400E494860084600680E49D2
:1019C00008400B4908600846006820F48020086041
:1019D0000846406820F4FE0048604FF41F0088600D
:1019E000FFF709FF4FF000600449086010BD0000D8
:1019F000001002400000FFF8FFFFF6FE08ED00E0D7
:101A000010B50121044800F09CF818B101210248EA
:101A100000F088F810BD00000004004000B589B057
:101A200001210420FFF74CFE01210920FFF758FE99
:101A30004FF47070ADF8200018208DF823000320BB
:101A40008DF8220008A92248FEF7E7FE6320ADF8D2
:101A500018000020ADF81400ADF81A00ADF816001B
:101A600005A91C4800F0E0F96020ADF80400012051
:101A7000ADF806000020ADF80C0001A9154800F0F3
:101A800071F801A9134800F0C3F801A9114800F04A
:101A90001FF901A90F4800F075F908210D4800F061
:101AA000ADF808210B4800F005F90821094800F0BD
:101AB0005FF90821074800F0A3F90121054800F06B
:101AC00025F80121034800F030F809B000BD0000FE
:101AD000000C01400008004010B50121094800F049
:101AE00030F868B10848008840F400400649088092
:101AF0000121044800F016F80021024800F015F812
:101B000010BD0000001400401400002021B1028824
:101B100042F08002028004E002884FF67F731A4090
:101B200002807047CA430282704721B1028842F0A6
:101B30000102028004E002884FF6FE731A40028020
:101B4000704730B50246002000230024158A05EABC
:101B50000103958905EA010413B10CB1012000E0ED
:101B6000002030BD70B5002400220023058C4FF604
:101B7000FE7635400584028C8388048B4FF68F7582
:101B80002C40B51E2C400D882C43751E2A400D8913
:101B90002A434D882A43144DA8420BD0134DA84226
:101BA00008D0134DA84205D0124DA84202D0124DC4
:101BB000A84213D14FF6F7752A404D892A434FF6B4
:101BC000FB752A408D882A434FF6FF652B404FF660
:101BD000FF552B408D892B43CD892B438380048374
:101BE000CD888586028470BD002C01400034014000
:101BF0000040014000440140004801400A460021E5
:101C0000018B4FF6F77319401143018370470000B1
:101C100070B5002400220023058C4FF6EF76354086
:101C20000584028C8388048B48F6FF752C404FF6A0
:101C3000FF452C400D884FF6FF7606EA05252C431C
:101C40004FF6DF752A400D8906EA05152A434D88AF
:101C500006EA05152A43154DA84202D0144DA842A4
:101C60001DD14FF67F752A404D894FF6FF7606EA63
:101C700005152A434FF6BF752A408D8806EA0515DB
:101C80002A434FF6FF352B404FF2FF752B408D89CD
:101C900006EA85052B43CD8906EA85052B4383801B
:101CA0000483CD880587028470BD0000002C0140AC
:101CB000003401400A460021018B4FF2FF731940A6
:101CC0004FF6FF7303EA02231943018370470000B4
:101CD00070B5002400220023058C4FF6FF663540C6
:101CE0000584028C8388848B4FF68F752C404FF6C9
:101CF000FC752C400D882C434FF6FF552A400D896A
:101D00004FF6FF7606EA05252A434D8806EA0525A3
:101D10002A43154DA84202D0144DA8421DD14FF2BE
:101D2000FF752A404D894FF6FF7606EA05252A43BE
:101D30004FF6FF352A408D8806EA05252A434EF6E0
:101D4000FF752B404DF6FF752B408D8906EA051572
:101D50002B43CD8906EA05152B4383808483CD88E8
:101D60008587028470BD0000002C014000340140D2
:101D70000A460021818B4FF6F77319401143818386
:101D80007047000070B5002200230024058C4EF639
:101D9000FF7635400584038C8488828B48F6FF7576
:101DA0002A404FF6FF452A400D884FF6FF7606EA97
:101DB00005252A434DF6FF752B400D8906EA0535AA
:101DC0002B434D8806EA05352B430B4DA84202D024
:101DD0000A4DA84208D14BF6FF752C408D894FF66D
:101DE000FF7606EA85152C4384808283CD88A0F88F
:101DF0004050038470BD0000002C014000340140BD
:101E00000A460021818B4FF2FF7319404FF6FF7392
:101E100003EA022319438183704781867047018753
:101E20007047818470470000002202881D4B984251
:101E30000ED01D4B98420BD0B0F1804F08D01B4BF9
:101E4000984205D01A4B984202D01A4B984204D1BE
:101E50004FF68F731A404B881A43174B984207D09E
:101E6000164B984204D04FF6FF431A40CB881A43D2
:101E700002808B8883850B8803850A4B98420BD0A0
:101E8000094B984208D00E4B984205D00D4B984212
:101E900002D00D4B984201D10B7A03860123838235
:101EA00070470000002C0140003401400004004055
:101EB00000080040000C00400010004000140040EA
:101EC00000400140004401400048014010B540F28C
:101ED00025511D4800F082F810B31B4800F03AF974
:101EE000C4B21A48008800F40040C8B917480088F6
:101EF00000F4804060B10A2C03D000201349088010
:101F000020E01248008840F400401049088019E0A1
:101F10000D2C06D10D48008840F480400B49088004
:101F200010E00A480088C0F30D0009490C54074826
:101F30000088401C0549088008460088C72801DD44
:101F40000020088010BD000000380140380000204B
:101F50000005002010B540F22551164800F03EF86B
:101F6000F8B1144800F0F6F8C4B21348008800F441
:101F70000040B0B910480088B0F5167F12DA002191
:101F80000E48FFF74EFF0C48008818B901210B4896
:101F9000FFF7CBFD08490888411C074A1180084912
:101FA0000C5405E00448008840F4004002490880D1
:101FB00010BD000000480040140000200014004044
:101FC0005000002021B1828942F40052828104E055
:101FD00082894DF6FF731A408281704770B50246C0
:101FE000002400230025002040F66A16B14200D1EB
:101FF00000BFC1F3421501F01F03012606FA03F3E7
:10200000012D02D19689334006E0022D02D1168AB5
:10201000334001E0968A33400C12012606FA04F49C
:102020001688344013B10CB1012000E0002070BDCF
:10203000F0B50346002400260025002040F66A176C
:10204000B94200D100BF1846C1F3421401F01F0687
:10205000012707FA06F5012C01D10C3004E0022C0F
:1020600001D1103000E014301AB107682F43076027
:1020700002E00768AF430760F0BD00002DE9F047BC
:1020800086B005460E460024A24600BFA1460027A2
:10209000B08900B100BF2F462C8A4CF6FF70044077
:1020A000F08804432C82AC894EF6F3100440B088CB
:1020B00031890843718908430443AC81AC8A4FF6E7
:1020C000FF400440B0890443AC8201A8FFF728FB1D
:1020D0001F48874202D1DDF810A001E0DDF80CA016
:1020E000A88900F4004040B10AEBCA0000EB0A10D6
:1020F00031684900B0FBF1F807E00AEBCA0000EBD9
:102100000A1031688900B0FBF1F86420B8FBF0F0E8
:1021100004012009642101FB1089A88900F4004012
:1021200040B1322000EBC900B0FBF1F000F0070035
:10213000044308E0322000EB09106421B0FBF1F009
:1021400000F00F0004432C8106B0BDE8F0870000CA
:102150000038014001468888C0F30800704700BF7E
:10216000FEE700002DE9F04105462C464FF40051F2
:102170001248FEF72EFC00261CE0274607F08007D9
:10218000802F04D1F9010D48FEF725FC04E04FF43F
:1021900080410A48FEF71DFC6006040E4FF4005112
:1021A0000648FEF718FC4FF400510448FEF711FCF6
:1021B000701CC6B2082EE0DBBDE8F081000C0140C7
:1021C00010B50446FEF72AFD7820FFF7CBFFFEF797
:1021D00051FD0020FFF7C6FFFEF74CFD2046FFF73C
:1021E000C1FFFEF747FDFEF731FD10BD10B50446F7
:1021F000FEF714FD7820FFF7B5FFFEF73BFD40200A
:10220000FFF7B0FFFEF736FD2046FFF7ABFFFEF706
:1022100031FDFEF71BFD10BD30380A2801D2012028
:1022200070470020704700BF7047142101FB00F287
:10223000D0B200BF0200A0F10103D8B2FAD17047BA
:1022400010B56FF00400FFF796FB0A4800680A49D2
:10225000B0FBF1F0094908700846007800EB400136
:10226000C1EBC0104FF6FF7101EAC00004490880BD
:1022700010BD00000000002000127A002E00002097
:10228000300000200146114A12884A434FF0E023F3
:102290005A6100229A611A46126942F001021A61DB
:1022A00000BF4FF0E022106900F001021AB100F403
:1022B0008032002AF5D04FF0E022126922F00102AC
:1022C0004FF0E0231A6100229A617047300000202D
:1022D00000BF054A128802F04002002AF9D0C2B2BB
:1022E000014B1B1D1A807047003801408AB0002046
:1022F00006900790089009900590824600BF00BFA5
:1023000000BF00BF00BF00BF029003900490FFF722
:1023100097FF4FF4A060FFF73FF84FF4E13000F073
:1023200093F9FEF75DFBC820FFF7ACFFFEF7BCF9A1
:10233000FEF740FAFFF75AF80020FFF737F840F2AF
:10234000CF216320FFF76AFBFEF7A2FCA54E47E111
:102350000A2306AA0421B620FFF7C2FA70B39DF83B
:1023600019009DF8181040EA0120ADF80C009DF806
:102370001B009DF81A1040EA0120ADF814009DF8EA
:102380001D009DF81C1040EA0120ADF81600BDF8B4
:102390001600BDF8141040EA014002909DF81F009D
:1023A0009DF81E1040EA0120ADF80E009DF82100B6
:1023B0009DF8201040EA0120ADF81000042306AA81
:1023C0000021B620FFF78CFAA8B19DF819009DF8FE
:1023D000181040EA0120ADF814009DF81B009DF88C
:1023E0001A1040EA0120ADF81600BDF81600BDF83D
:1023F000141040EA014A6420BAFBF0F5284600F0C8
:10240000DFFA8146314600F024FC8046404600F069
:102410009BFAB0F1000901DB494601E0C9F1000176
:10242000084600F0CDFA83460021404600F0E0FB6C
:1024300000D864270021404600F0DAFA00D20027D5
:102440006949584600F0D4FB10D86849584600F056
:10245000B9F96749019000F0FFFA814600F074FA7B
:102460000446B4F51B6F01DD40F6B1145E495846D1
:1024700000F0BEFA0BD80021404600F0B9FB00D2B4
:102480000A3C0021404600F0B3FA00D20A34564913
:10249000584600F0ADFB10D85649584600F092F966
:1024A0005349019000F0D8FA814600F04DFA0446F5
:1024B000B4F51B6F01DD40F6B114FEF75DFE4E482A
:1024C0000088012804D14D49304600F0CDFB064676
:1024D00049480088022804D14849304600F004F9F0
:1024E000064645480088032804D14549304600F097
:1024F000BBFB064640480088042804D140493046CA
:1025000000F0F2F806463C480088052804D1364918
:10251000304600F0A9FB064637480088062804D15B
:102520003149304600F0E0F8064633480088072875
:1025300004D12E49304600F097FB06462E4800880D
:10254000082804D12949304600F0CEF80646B9B231
:102550002C48FFF762FCB9B22A48FFF760FCB4F5DB
:102560001B6F01DD40F6B1140A2C00DC0A24A1B275
:102570000020FEF70FF9294623A0FDF74DFE10239A
:1025800025A201210A20FFF765F8102324A20321C8
:102590000A20FFF75FF8102323A205210A20FFF786
:1025A00059F8102004232A46012100905020FFF7FB
:1025B0000DF8304600F0E4F98146102004234A4625
:1025C000032100905020FFF701F810200523224638
:1025D000194600905020FEF7F9FF002006490880B8
:1025E000B6E600000080D444000048420000C84223
:1025F00000101B4500004843180000200000A040C8
:102600000000A041000800407B226C6967687422CA
:102610003A25647D0A0000006C696768743A00001E
:102620007461726765743A00566F75743A00000001
:1026300010B50246012000E050430B00A1F1010457
:10264000E1B2F9D110BD000010B586B004460121F9
:1026500044F20400FFF744F84FF40070ADF81400A2
:1026600003208DF8160018208DF8170005A91C48C6
:10267000FEF7D3F84FF48060ADF8140004208DF815
:10268000170005A91648FEF7C8F825208DF80000A8
:1026900003208DF801008DF8020001208DF8030061
:1026A0006846FEF741FE01940020ADF80800ADF841
:1026B0000A00ADF80C00ADF810000C20ADF80E00CB
:1026C00001A90848FFF7DAFC012240F2255105482C
:1026D000FFF7AEFC01210348FFF774FC06B010BD04
:1026E000000801400038014090EA010F48BF81F026
:1026F000004100F1C082421A3CBF801A89184FEA9B
:10270000D0524FF07F4C1CEA410FA2EBD15318BFBF
:102710009CEA026F00F03B804FF0004C4CEA002036
:102720004CEA012121FA03FC10EB0C0C1ED202F141
:10273000FF325FEA1C2040EBC25038BF70471CF0EC
:102740007F0F4FEA400C18BFBCF17F4F38BF704776
:10275000C3F12003994008BF20F00100BCF17F4F76
:1027600038BF7047A0F1C04000F03DBA4FEA3C00CE
:10277000000A40EBC25028BF1CF0FF0F4FEA400C8C
:10278000E6D018BFBCF17F4F38BF7047EAE79CEA3C
:10279000026F05D010EA5C0F08BF00F000407047E0
:1027A00010B500F0DAF900BF64FBBE3E401058BF20
:1027B000C0F14040491058BFC1F140418142EFF3A0
:1027C000008070474FF47F0C1CEAD0121EBF1CEA39
:1027D000D11392EA0C0F93EA0C0F00F0858090EA77
:1027E000010F48BF42F4807240F4000C41F4000035
:1027F0002CF07F4120F07F4000B58142A2EB030224
:102800000FF2081CACEB504EC0F100009EF800E047
:102810004FEA4E0E00FB0EFC38BF49004FEA2C1C5D
:1028200002F5FA020CFB0EF34FEACE1E4FEA112C12
:102830004FEAC1210EEB635E42EB22420EFB0CFC21
:102840004FEA1C5300FB03114FEA112C4FEA0131F0
:102850000EFB0CFC4FEADC4C00FB0C11C14228BF04
:1028600009184CEB03335DF804EB10EB410143EB2B
:10287000C250B2F57C0F38BF704729D512F0F00F67
:102880001CBF00F1C04000F000407047008182830F
:102890008485868788898B8C8D8E8F91929395966F
:1028A00097999A9C9D9FA0A2A3A5A7A8AAACAEB0F9
:1028B000B2B3B5B7B9BCBEC0C2C5C7C9CCCED1D4FE
:1028C000D7D9DCDFE2E6E9ECF0F3F7FAFE0000002E
:1028D0004FEA400C0CF1807CBCF17E4F28BF704762
:1028E000B0F1C04000F07FB990EA010F0CEAD113BB
:1028F00048BF42F48072624538BF634507D213F483
:102900007F0F16D080EA010000F00040704710B53C
:1029100000F023F9097EFC3E00F005B880EA0100D2
:1029200000F00040704780EA010000F0004000F035
:102930005AB912F47F0F04BF0248704780EA0100C1
:1029400000F051B90000C07F41000B0ED3F19E0290
:1029500008D950F400034FEA032323FA02F048BFDA
:102960004042704710B500F0F8F800BF499224804B
:10297000002070476FF0004282EA2000704700009C
:10298000C10DD1F19E0206DB4FEA002343F0004364
:1029900023FA02F07047004207D54FEA4001B1F137
:1029A000FE4F02D24FF00000704710B500F0D5F88E
:1029B00049922480002070476FEA20007047000091
:1029C00010F0004148BF4042B0FA80F310FA03F221
:1029D000C3F19D030BD051EAC35101EB1220530602
:1029E00038BF704700F1010008BF20F001007047B8
:1029F00050EA010C00F113801CF5000F58BFBCF524
:102A0000000F01D48842704707D710F5000F58BF58
:102A100011F5000F15D488427047894270471CF5A4
:102A2000000F04D5BCF5000FF7D5814270474FF079
:102A3000807C1CEB400F38BF1CEB410F01D2814260
:102A4000704710B500F089F8922449004FF000500B
:102A50004FF08051FFF7AABE4FF47F0C1CEAD01252
:102A60001EBF1CEAD11392EA0C0F93EA0C0F00F080
:102A7000478090EA010F48BF42F480724FF0004C4B
:102A80004CEA00204CEA012102EB0302A0FB0113F7
:102A9000A2F50002002918BF43F001035B0028BF24
:102AA0004FEA330342EB22425FEA132C4CEBC25055
:102AB0002EBFBCEB436FB2F57C0F70474FEA036C3F
:102AC000BCF1004F08BF20F00100B2F57C0F38BF09
:102AD00070470BD582F0FF0212F5803FC8BF7047E8
:102AE00000F1C040D8BF00F00040704700F5000C76
:102AF0005FEA4C0C48BF7047B0F1C04000F073B8BB
:102B000090EA010F0CEAD11348BF42F4807262458B
:102B100038BF634504D280EA010000F000407047EE
:102B200010B500F01AF800BF8900013E00F007B8A8
:102B300000F009B85FEA410C5FEA1C6C08D080EA3B
:102B4000010000F050B85FEA400C5FEA1C6CF6D15F
:102B50004FF00040A0F5800070470EF1020E2EF0FD
:102B6000030E5EF8044B244204D44FEA4102B2F152
:102B70007F4F11D84FEA4003B3F17F4F0CD80ED1ED
:102B80004FEAD07CB2F17F4F0CEB4C0C0CF1020CF5
:102B900008BF4CEBD17C04E04FF0080C01E04FEA99
:102BA000D17C0CEB4C0324FA03F404F00704B4F1D9
:102BB000040C06D20EEB840CBDE810404CF0010C66
:102BC0006047DFE80CF0070802024FF00040A0F574
:102BD000800010BD0846420018BFD2F1807288BF45
:102BE00000F0004010BDFF2141EAD050C005704701
:102BF00051EA000C00F113801CF5000F58BFBCF522
:102C0000000F01D48142704707D711F5000F58BF5C
:102C100010F5000F15D481427047894270471CF5AA
:102C2000000F04D5BCF5000FF7D5884270474FF070
:102C3000807C1CEB410F38BF1CEB400F01D2884257
:102C4000704780EA010081EA000180EA0100FFF795
:102C5000F8BE80F0004090EA010F7FF54CAD81F0A6
:102C6000004100F008B8000090EA010F48BF81F071
:102C700000413FF540AD421A04D882F00042A0EB7B
:102C8000020011444FEAD0524FF07F4C1CEA410F32
:102C9000A2EBD15318BF9CEA026F4AD04FF0004C10
:102CA0004CEA00204CEA012121FA03FCB0EB0C0CA9
:102CB0000FD412F0FE0F36D05FEA4C001DD5001283
:102CC00040EBC25038BF70471CF03F0F18BF704731
:102CD0000BE0A2F101025FEA1C2040EBC25038BFBA
:102CE00070471CF07F0F18BF7047C3F12003994055
:102CF00014BF401E20F00100704780084FEA1223E5
:102D000008BF7047B0FA80FCA2EB0C02CCF1280C93
:102D100060FA0CF093EA122F04BF00EBC250704728
:102D20004FEAC3707047130A5FEADC1008BF7047B0
:102D3000F6E79CEA026F04D010EA5C0F08BF00209F
:102D4000704710B5FFF709FF40DFF63E81F0004005
:102D500070470000000000000000002F000000008D
:102D60000700070000147F147F1400242A7F2A1212
:102D70000062640813230036495522500000050301
:102D8000000000001C224100000041221C00001431
:102D9000083E08140008083E0808000000A0600073
:102DA0000008080808080000606000000020100803
:102DB0000402003E5149453E0000427F400000426F
:102DC00061514946002141454B31001814127F10D2
:102DD000002745454539003C4A4949300001710901
:102DE000050300364949493600064949291E0000B5
:102DF000363600000000563600000008142241005C
:102E0000001414141414000041221408000201518B
:102E1000090600324959513E007C1211127C007F94
:102E200049494936003E41414122007F4141221C2F
:102E3000007F49494941007F09090901003E414994
:102E4000497A007F0808087F0000417F4100002088
:102E500040413F01007F08142241007F4040404034
:102E6000007F020C027F007F0408107F003E41417A
:102E7000413E007F09090906003E4151215E007F65
:102E8000091929460046494949310001017F0101DC
:102E9000003F4040403F001F2040201F003F40387F
:102EA000403F0063140814630007087008070061BE
:102EB0005149454300007F41410000552A552A559C
:102EC000000041417F000004020102040040404034
:102ED0004040000001020400002054545478007F58
:102EE0004844443800384444442000384444487F2F
:102EF00000385454541800087E0901020018A4A494
:102F0000A47C007F080404780000447D4000004059
:102F100080847D00007F102844000000417F400035
:102F2000007C04180478007C0804047800384444C9
:102F3000443800FC242424180018242418FC007CA5
:102F40000804040800485454542000043F4440201E
:102F5000003C4040207C001C2040201C003C4030B5
:102F6000403C004428102844001CA0A0A07C004441
:102F700064544C4414141414141400000000000091
:102F800000000000000000000000000000F8000049
:102F90000000000000333000000000100C06100C90
:102FA0000600000000000000000040C07840C0782B
:102FB0004000043F04043F040400007088FC083013
:102FC0000000001820FF211E0000F008F000E018AB
:102FD000000000211C031E211E0000F00888700064
:102FE00000001E2123241927211010160E000000B6
:102FF00000000000000000000000000000E01804D5
:103000000200000000071820400000020418E00041
:1030100000000040201807000000404080F0804081
:1030200040000202010F01020200000000F0000057
:1030300000000101011F010101000000000000006B
:10304000000080B0700000000000000000000000E0
:103050000000000101010101010100000000000069
:103060000000003030000000000000000000806020
:103070001804006018060100000000E010080810A5
:10308000E000000F102020100F00001010F80000CA
:1030900000000020203F2020000000700808088861
:1030A0007000003028242221300000300888884831
:1030B00030000018202020110E000000C02010F861
:1030C000000000070424243F240000F80888880832
:1030D00008000019212020110E0000E01088881837
:1030E0000000000F112020110E0000380808C83819
:1030F00008000000003F00000000007088080888F9
:103100007000001C222121221C0000E01008081081
:10311000E0000000312222110F00000000C0C000BA
:1031200000000000003030000000000000800000BF
:1031300000000000806000000000000080402010BF
:1031400008000001020408102000404040404040B8
:10315000400004040404040404000008102040801B
:103160000000002010080402010000704808080850
:10317000F0000000003036010000C030C828E81020
:10318000E0000718272423140B000000C038E000DB
:103190000000203C23020227382008F88888887025
:1031A0000000203F202020110E00C0300808080831
:1031B0003800071820202010080008F80808081018
:1031C000E000203F202020100F0008F88888E80841
:1031D0001000203F20202320180008F88888E808E5
:1031E0001000203F200003000000C030080808380D
:1031F000000007182020221E020008F8080000081E
:10320000F808203F210101213F20000808F80808A4
:1032100000000020203F2020000000000808F808DF
:103220000800C08080807F00000008F888C028184F
:103230000800203F20012638200008F80800000080
:103240000000203F20202020300008F8F800F8F887
:103250000800203F003F003F200008F830C0000871
:10326000F808203F200007183F00E0100808081069
:10327000E0000F10202020100F0008F808080808B0
:10328000F000203F210101010000E01008080810B3
:10329000E0000F18242438504F0008F888888888E8
:1032A0007000203F2000030C3020007088080808C0
:1032B00038000038202121221C00180808F80808CE
:1032C00018000000203F2000000008F80800000857
:1032D000F808001F202020201F000878880000C860
:1032E0003808000007380E010000F80800F8000850
:1032F000F800033C0700073C03000818688080685A
:10330000180820302C03032C30200838C800C83897
:1033100008000000203F2000000010080808C838FE
:1033200008002038262120201800000000FE02029C
:1033300002000000007F40404000000C30C0000050
:103340000000000000010638C00000020202FE007A
:103350000000004040407F00000000000402020224
:103360000400000000000000000000000000000059
:103370000000808080808080808000020204000045
:10338000000000000000000000000000808080803D
:1033900000000019242222223F2008F8008080002B
:1033A0000000003F112020110E00000000808080EE
:1033B0000000000E112020201100000000808088F5
:1033C000F800000E112020103F2000008080808037
:1033D0000000001F222222221300008080F0888833
:1033E00088180020203F202000000000808080807E
:1033F0008000006B94949493600008F800808080B3
:103400000000203F210000203F200080989800000D
:1034100000000020203F202000000000008098983D
:10342000000000C08080807F000008F800008080DD
:103430008000203F24022D302000000808F8000002
:1034400000000020203F20200000808080808080BD
:103450008000203F20003F20003F8080008080804F
:103460000000203F210000203F200000808080805D
:103470000000001F202020201F008080008080008E
:10348000000080FFA12020110E000000008080803D
:103490008000000E112020A0FF80808080008080AE
:1034A000800020203F2120000100000080808080DB
:1034B00080000033242424241900008080E08080D0
:1034C00000000000001F202000008080000000801D
:1034D0008000001F202020103F208080800000807E
:1034E000808000010E30080601008080008000808E
:1034F00080800F300C030C300F0000808000808033
:1035000080000020312E0E3120008080800000805D
:10351000808080818E70180601000080808080800D
:1035200080000021302C2221300000000000807C2F
:10353000020200000000003F404000000000FF00C9
:10354000000000000000FF0000000002027C80007C
:1035500000000040403F00000000000601010202A0
:103560000404000000000000000004000008000047
:103570000000000000020001000010009C3500085F
:1035800000000020500000006C010008EC3500082D
:1035900050000020D80B00008801000800A24A0457
:1035A00000000000000000000102030406070809F3
:1035B000000000000000000000000000000000000B
:1035C000B500000000000000000000000000000046
:1035D00000000000000000000000010203040102DE
:0C35E000030406070809020406080000A6
:04000005080001D519
:00000001FF
